:100000000C945D000C9485000C9485000C94850084
:100010000C9485000C9485000C9485000C9485004C
:100020000C9485000C9485000C9485000C9485003C
:100030000C9485000C9485000C9485000C9485002C
:100040000C94E9040C9485000C9459050C94330528
:100050000C9485000C9485000C9485000C9485000C
:100060000C9485000C94850000000008000201003B
:100070000003040700000000000000000000000072
:10008000250028002B0000000000240027002A0083
:10009000040404040404040402020202020203032E
:1000A0000303030301020408102040800102040836
:1000B00010200102040810208B0511241FBECFEF71
:1000C000D8E0DEBFCDBF11E0A0E0B1E0E6EFF2E1A5
:1000D00002C005900D92AA35B107D9F722E0AAE532
:1000E000B1E001C01D92A831B207E1F710E0CDE503
:1000F000D0E004C02197FE010E947309CC35D107DE
:10010000C9F70E94D5050C9479090C94000090E081
:10011000FC01EC55FF4F249180579F4FFC018491C7
:10012000882399F090E0880F991FFC01EA57FF4F50
:10013000A591B491FC01E458FF4F859194918FB73C
:10014000F894EC91E22BEC938FBF089590E0FC01C2
:10015000E859FF4F2491FC01EC55FF4F3491FC010D
:10016000E057FF4FE491EE23C9F0222339F023300A
:1001700001F1A8F4213019F1223029F1F0E0EE0F5D
:10018000FF1FE458FF4FA591B4918FB7F894EC91FD
:10019000611126C030953E233C938FBF08952730D0
:1001A000A9F02830C9F0243049F7809180008F7D74
:1001B00003C0809180008F7780938000DFCF84B56B
:1001C0008F7784BDDBCF84B58F7DFBCF8091B0006E
:1001D0008F778093B000D2CF8091B0008F7DF9CF20
:1001E0003E2BDACF3FB7F89480915F019091600188
:1001F000A0916101B091620126B5A89B05C02F3F77
:1002000019F00196A11DB11D3FBFBA2FA92F982F3C
:100210008827BC01CD01620F711D811D911D42E037
:10022000660F771F881F991F4A95D1F708958F92FF
:100230009F92AF92BF92CF92DF92EF92FF924B01CB
:100240005C010E94F2006B017C010E94F2006C19BB
:100250007D098E099F09683E734081059105A8F3C9
:1002600021E0821A9108A108B10888EEC80E83E047
:10027000D81EE11CF11C81149104A104B10429F7DA
:10028000FF90EF90DF90CF90BF90AF909F908F90B6
:100290000895DC01ED91FC910190F081E02D09942D
:1002A000AF92BF92CF92DF92EF92FF920F931F9384
:1002B000CF93DF936C017B018B01040F151FEB01C2
:1002C0005E01AE18BF08C017D10759F06991D60179
:1002D000ED91FC910190F081E02DC6010995892BEB
:1002E00079F7C501DF91CF911F910F91FF90EF90AA
:1002F000DF90CF90BF90AF900895FC01538D448D57
:10030000252F30E0842F90E0821B930B541710F0C0
:10031000CF96089501970895FC01918D828D9817CD
:1003200061F0A28DAE0FBF2FB11D5D968C91928DA5
:100330009F5F9F73928F90E008958FEF9FEF0895D6
:10034000FC01918D828D981731F0828DE80FF11D9F
:10035000858D90E008958FEF9FEF0895FC01918DBA
:10036000228D892F90E0805C9F4F821B91098F73B3
:100370009927089583E691E00E94AE0121E0892B40
:1003800009F420E0822F089580E090E0892B29F085
:100390000E94BA0181110C9400000895FC01A48D03
:1003A000A80FB92FB11DA35ABF4F2C91848D90E097
:1003B00001968F739927848FA689B7892C93A0897A
:1003C000B1898C91837080648C93938D848D981304
:1003D00006C00288F389E02D80818F7D8083089597
:1003E000EF92FF920F931F93CF93DF93EC0181E085
:1003F000888F9B8D8C8D98131AC0E889F98980812C
:1004000085FF15C09FB7F894EE89FF896083E8895E
:10041000F98980818370806480839FBF81E090E050
:10042000DF91CF911F910F91FF90EF900895F62EDD
:100430000B8D10E00F5F1F4F0F731127E02E8C8D77
:100440008E110CC00FB607FCFACFE889F9898081BC
:1004500085FFF5CFCE010E94CE01F1CFEB8DEC0FE1
:10046000FD2FF11DE35AFF4FF0829FB7F8940B8FD9
:10047000EA89FB8980818062CFCFCF93DF93EC0143
:10048000888D8823B9F0AA89BB89E889F9898C917C
:1004900085FD03C0808186FD0DC00FB607FCF7CF38
:1004A0008C9185FFF2CF808185FFEDCFCE010E9438
:1004B000CE01E9CFDF91CF910895089590E080E0DB
:1004C0000895CF93DF93EC0160E08E810E94A60037
:1004D00061E08E810E94A60060E08E810E94A600ED
:1004E0008BE891E00197F1F7DF91CF910895CF92DA
:1004F000DF92EF92FF920F931F93CF93DF936C01E4
:100500007C0187E0E80EF11CD0E0C0E0062F10E08F
:10051000B8010C2E02C0759567950A94E2F76170D8
:10052000F70181917F010E94A6002196C430D10578
:1005300079F7C601DF91CF911F910F91FF90EF9056
:10054000DF90CF900C946102CF92DF92EF92FF92F6
:100550000F931F93CF93DF93EC01F62E642F8C81C2
:100560000E94A6008D818F3F19F060E00E94A600D6
:100570000F2D10E08F8584FF25C06E0187E0C80E27
:10058000D11CF12CE12CB8010E2C02C07595679599
:100590000A94E2F76170F60181916F010E94A60052
:1005A000FFEFEF1AFF0A88E0E816F10461F7CE01C9
:1005B000DF91CF911F910F91FF90EF90DF90CF903F
:1005C0000C946102B80184E0759567958A95E1F70E
:1005D000CE010E9477026F2DCE01DF91CF911F9146
:1005E0000F91FF90EF90DF90CF900C94770240E056
:1005F000682F80E092E00C94A40281E00E94F70250
:100600008BE39FE10197F1F70895CF93DF93823059
:1006100029F490910F02986090930F028093130237
:100620001092140280E48093150280E180931602F8
:1006300080E580931702809104020E9487008091D8
:1006400005028F3F11F00E948700809106020E94F0
:100650008700C0E0D2E09E012050324080910F021E
:1006600084FD0AC084E090E02196281739073CF405
:100670008E810E948700EFCF88E090E0F5CF8BE37A
:100680009DE00197F1F760E0809104020E94A600CE
:1006900060E0809106020E94A600809105028F3FD3
:1006A00019F060E00E94A60080910F0284FD34C022
:1006B00063E080E092E00E947702CBE4D6E4CE01D2
:1006C0000197F1F763E080E092E00E9477022197C2
:1006D000F1F763E080E092E00E94770283E592E028
:1006E0000197F1F762E080E092E00E94770280914A
:1006F0000F0280620E94F70284E0809310028CE077
:100700000E94F7020E94FD0282E08093110286E0BF
:10071000DF91CF910C94F70280620E94F7028BE484
:1007200096E40197F1F780910F0280620E94F70230
:1007300083E592E00197F1F780910F0280620E94B9
:10074000F702D5CF41E00E94A40281E090E0089535
:10075000FB0101900020E9F73197AF01461B570BD1
:10076000DC01ED91FC910280F381E02D09948F92E0
:100770009F92AF92BF92EF92FF920F931F93CF93EE
:10078000DF93CDB7DEB7A1970FB6F894DEBF0FBEEB
:10079000CDBF7C01FA01CB0119A2223008F42AE076
:1007A0008E010F5D1F4F822E912CB12CA12CBF0109
:1007B000A50194010E945109F901CA016A300CF5A2
:1007C000605DD8016E938D01232B242B252B79F7A7
:1007D00090E080E0109721F0BD01C7010E94A803BE
:1007E000A1960FB6F894DEBF0FBECDBFDF91CF91BB
:1007F0001F910F91FF90EF90BF90AF909F908F90BF
:100800000895695CDECF2F923F924F925F926F9274
:100810007F928F929F92AF92BF92CF92DF92EF9290
:10082000FF921F93CF93DF93EC016A017B01722E3D
:10083000AB019601CB01B6010E944C096EE171E05B
:10084000811126C046015701E894B7F82FEF3FEF1A
:100850004FE75FE7C501B4010E944C0981110CC04C
:100860002FEF3FEF4FE75FE7C501B4010E9482071A
:1008700062E271E0181664F02FEF3FEF4FE75FE49C
:10088000C701B6010E94DA081816B4F466E271E0F6
:10089000CE01DF91CF911F91FF90EF90DF90CF902D
:1008A000BF90AF909F908F907F906F905F904F9090
:1008B0003F902F900C94A8032FEF3FEF4FE75FEC92
:1008C000C701B6010E94820787FDE0CF20E030E03B
:1008D000A901C701B6010E948207312C212C87FF94
:1008E00009C06DE2CE010E9449011C01F7FAF094A3
:1008F000F7F8F09410E060E070E080E09FE371169C
:1009000041F020E030E040E251E40E9487071F5FA1
:10091000F6CFA70196010E9416072B013C010E9409
:10092000F9074B015C012AE0BC01A401CE010E9441
:10093000B7037C01E20CF31C1123C1F1C501B40122
:100940000E9428089B01AC01C301B2010E94150757
:100950004B015C016EE2CE010E944901E80EF91ED6
:10096000115020F120E030E040E251E4C501B40133
:100970000E94DF082B013C010E94F9074B01B12CBA
:10098000A12C2AE0B501A401CE010E94B703E80E14
:10099000F91EC501B4010E9428089B01AC01C301E6
:1009A000B2010E9415074B015C01DACFC701DF914C
:1009B000CF911F91FF90EF90DF90CF90BF90AF90BD
:1009C0009F908F907F906F905F904F903F902F906F
:1009D00008951F920F920FB60F9211242F933F93F9
:1009E0008F939F93AF93BF9380915B0190915C0134
:1009F000A0915D01B0915E0130915A0123E0230F77
:100A00002D3758F50196A11DB11D20935A018093F1
:100A10005B0190935C01A0935D01B0935E018091B6
:100A20005F0190916001A0916101B0916201019616
:100A3000A11DB11D80935F0190936001A09361019E
:100A4000B0936201BF91AF919F918F913F912F9190
:100A50000F900FBE0F901F90189526E8230F029657
:100A6000A11DB11DD2CF1F920F920FB60F9211246C
:100A70002F933F934F935F936F937F938F939F93A6
:100A8000AF93BF93EF93FF9383E691E00E94CE0173
:100A9000FF91EF91BF91AF919F918F917F916F9156
:100AA0005F914F913F912F910F900FBE0F901F902C
:100AB00018951F920F920FB60F9211242F938F93B8
:100AC0009F93EF93FF93E0917301F0917401808104
:100AD000E0917901F0917A0182FD1BC090818091B3
:100AE0007C018F5F8F7320917D01821741F0E0912F
:100AF0007C01F0E0ED59FE4F958F80937C01FF91D2
:100B0000EF919F918F912F910F900FBE0F901F909B
:100B100018958081F4CFE3E6F1E01382128288EE2B
:100B200093E0A0E0B0E084839583A683B78384E05C
:100B300091E09183808385EC90E09587848784ECB5
:100B400090E09787868780EC90E0918B808B81EC9A
:100B500090E0938B828B82EC90E0958B848B86EC7B
:100B600090E0978B868B118E128E138E148EE0E0A0
:100B7000F2E01382128286E191E09183808387E024
:100B800084838FEF858388E0868389E087838AE08A
:100B900080878BE081878CE0828713861486158698
:100BA0001686178681E00C940503789484B58260DC
:100BB00084BD84B5816084BD85B5826085BD85B501
:100BC000816085BD80916E00816080936E0010927F
:100BD00081008091810082608093810080918100FA
:100BE000816080938100809180008160809380008B
:100BF0008091B10084608093B1008091B0008160E9
:100C00008093B00080917A00846080937A00809114
:100C10007A00826080937A0080917A00816080936C
:100C20007A0080917A00806880937A001092C100E7
:100C3000E0917301F091740182E08083E0916F0193
:100C4000F09170011082E0917101F09172018FECCE
:100C5000808310927B01E0917701F091780186E02A
:100C60008083E0917501F0917601808180618083BD
:100C7000E0917501F0917601808188608083E09138
:100C80007501F0917601808180688083E091750123
:100C9000F091760180818F7D808382E00E94050340
:100CA0000E94FD026AE271E080E092E00E94A803E7
:100CB0006CED75E080E090E00E9417010E94FD025B
:100CC00010E4C0E0D0E010937C0080917A00806452
:100CD00080937A0080917A0086FDFCCFC0907800E6
:100CE000D09079000D2C000CEE08FF08C701B6016A
:100CF0000E942A082AE038E240EA5BE30E94DF080B
:100D00004B015C010E94FD02E1E080911302811120
:100D1000E0E0E195F0E0E050FE4F848980680E94B9
:100D2000F70267E371E080E092E00E94A8032AE006
:100D3000B701A601F7FE0DC06DE280E092E00E94CF
:100D4000490144275527BA014C195D096E097F09ED
:100D50002AE080E092E00E94B703E0911302E230C3
:100D600008F061C0E150F0E0E050FE4F84898068F7
:100D70000E94F7026CE371E080E092E00E94A80319
:100D800023E0B501A40180E092E00E9403046FE338
:100D900071E080E092E00E94A80362E471E083E6E3
:100DA00091E00E94A8032AE0B701A601F7FE0DC05A
:100DB0006DE283E691E00E94490144275527BA017C
:100DC0004C195D096E097F092AE083E691E00E94D3
:100DD000B70369E471E083E691E00E94A80323E091
:100DE000B501A40183E691E00E9403046FE371E082
:100DF00083E691E00E94A80366E571E083E691E056
:100E00000E94A80368EE73E080E090E00E94170162
:100E1000209709F458CF0E94BA01882309F453CFD0
:100E20000E94000050CFE1E09ECF5058BB27AA2778
:100E30000E942D070C94A0080E94920838F00E948E
:100E4000990820F039F49F3F19F426F40C948F0888
:100E50000EF4E095E7FB0C948908E92F0E94B10895
:100E600058F3BA17620773078407950720F079F4DF
:100E7000A6F50C94D3080EF4E0950B2EBA2FA02DF6
:100E80000B01B90190010C01CA01A0011124FF2737
:100E9000591B99F0593F50F4503E68F11A16F04032
:100EA000A22F232F342F4427585FF3CF4695379531
:100EB0002795A795F0405395C9F77EF41F16BA0BF6
:100EC000620B730B840BBAF09150A1F0FF0FBB1FA4
:100ED000661F771F881FC2F70EC0BA0F621F731FED
:100EE000841F48F4879577956795B795F7959E3F4A
:100EF00008F0B0CF9395880F08F09927EE0F9795DB
:100F0000879508950E94650808F481E008950E947D
:100F10009B070C94A0080E94990858F00E94920820
:100F200040F029F45F3F29F00C94890851110C948A
:100F3000D4080C948F080E94B10868F39923B1F388
:100F4000552391F3951B550BBB27AA2762177307EF
:100F5000840738F09F5F5F4F220F331F441FAA1F83
:100F6000A9F335D00E2E3AF0E0E832D0915050403F
:100F7000E695001CCAF72BD0FE2F29D0660F771FED
:100F8000881FBB1F261737074807AB07B0E809F0D3
:100F9000BB0B802DBF01FF2793585F4F3AF09E3F58
:100FA000510578F00C9489080C94D4085F3FE4F361
:100FB000983ED4F3869577956795B795F7959F5F9B
:100FC000C9F7880F911D9695879597F90895E1E0E7
:100FD000660F771F881FBB1F621773078407BA0746
:100FE00020F0621B730B840BBA0BEE1F88F7E095A1
:100FF00008950E94B90888F09F5798F0B92F992753
:10100000B751B0F0E1F0660F771F881F991F1AF0F3
:10101000BA95C9F714C0B13091F00E94D308B1E07D
:1010200008950C94D308672F782F8827B85F39F07C
:10103000B93FCCF3869577956795B395D9F73EF48C
:1010400090958095709561957F4F8F4F9F4F089534
:10105000E89409C097FB3EF4909580957095619552
:101060007F4F8F4F9F4F9923A9F0F92F96E9BB2708
:101070009395F695879577956795B795F111F8CF84
:10108000FAF4BB0F11F460FF1BC06F5F7F4F8F4FEF
:101090009F4F16C0882311F096E911C0772321F0E5
:1010A0009EE8872F762F05C0662371F096E8862F7D
:1010B00070E060E02AF09A95660F771F881FDAF7D4
:1010C000880F9695879597F90895990F0008550F01
:1010D000AA0BE0E8FEEF16161706E807F907C0F0BE
:1010E00012161306E407F50798F0621B730B840BC6
:1010F000950B39F40A2661F0232B242B252B21F4A0
:1011000008950A2609F4A140A6958FEF811D811D3F
:10111000089597F99F6780E870E060E008959FEF79
:1011200080EC089500240A9416161706180609067E
:10113000089500240A94121613061406050608954D
:10114000092E0394000C11F4882352F0BB0F40F4D5
:10115000BF2B11F460FF04C06F5F7F4F8F4F9F4F15
:10116000089557FD9058440F551F59F05F3F71F097
:101170004795880F97FB991F61F09F3F79F08795FE
:101180000895121613061406551FF2CF4695F1DF87
:1011900008C0161617061806991FF1CF8695710517
:1011A000610508940895E894BB2766277727CB014B
:1011B00097F908950E94650808F48FEF08950E943A
:1011C000F2080C94A0080E94920838F00E94990836
:1011D00020F0952311F00C9489080C948F081124A9
:1011E0000C94D4080E94B10870F3959FC1F3950F39
:1011F00050E0551F629FF001729FBB27F00DB11D9B
:10120000639FAA27F00DB11DAA1F649F6627B00D2A
:10121000A11D661F829F2227B00DA11D621F739F13
:10122000B00DA11D621F839FA00D611D221F749F21
:101230003327A00D611D231F849F600D211D822F68
:10124000762F6A2F11249F5750409AF0F1F088238F
:101250004AF0EE0FFF1FBB1F661F771F881F9150BC
:101260005040A9F79E3F510580F00C9489080C94DA
:10127000D4085F3FE4F3983ED4F38695779567955D
:10128000B795F795E7959F5FC1F7FE2B880F911DE6
:101290009695879597F908950E946508880B990B94
:1012A0000895A1E21A2EAA1BBB1BFD010DC0AA1FA7
:1012B000BB1FEE1FFF1FA217B307E407F50720F0BF
:1012C000A21BB30BE40BF50B661F771F881F991F3A
:1012D0001A9469F760957095809590959B01AC0183
:1012E000BD01CF010895EE0FFF1F0590F491E02D91
:0612F0000994F894FFCF01
:1012F60000000000F00150017D013D02AE018C01AD
:10130600A00100000000A20350015E025D026E61B2
:101316006E00696E66006F7666005054313030207C
:10132600526561646572004144433A00563D0020AF
:101336005600414443203D20002C20566F6C7461BA
:0A1346006765203D20000D0A00003D
:00000001FF
