:100000000C9434000C9451000C9451000C94510049
:100010000C9451000C9451000C9451000C9451001C
:100020000C9451000C9451000C9451000C9451000C
:100030000C9451000C9451000C9451000C945100FC
:100040000C9451000C9451000C9451000C945100EC
:100050000C9451000C9451000C9451000C945100DC
:100060000C9451000C94510011241FBECFEFD8E026
:10007000DEBFCDBF11E0A0E0B1E0E2E0FCE002C0F5
:1000800005900D92AA31B107D9F721E0AAE1B1E0BC
:1000900001C01D92AE31B207E1F70E944C010C94F1
:1000A000FF050C9400004F925F926F927F928F92A7
:1000B0009F92AF92BF92CF92DF92EF92FF920F93F7
:1000C0001F93CF93DF9320E030E048EC52E40E948E
:1000D000B7030E9484032B013C01CB01D0E0C0E0B8
:1000E0002AE030E0181619060CF46DC0C330D105B3
:1000F00014F4C3E0D0E0CE0102960E94DA047C0141
:100100008C010C0F1D1FF80111828AE0882E912CA2
:10011000A12CB12CC301B201A50194010E94850458
:10012000605DF80160836801F1E0CF1AD108CA016F
:10013000B901A50194010E948504605DF601608308
:10014000C301B20124E630E040E050E00E948504A3
:1001500049015A01F80132978EE28083239790E398
:10016000D92E2AE0422E512C612C712C87010C0FC4
:100170001D1F181419041A041B045CF5C501B401F1
:10018000A30192010E948504605DF8016083C501AE
:10019000B401A30192010E94850449015A012197EB
:1001A00028F7C701DF91CF911F910F91FF90EF903A
:1001B000DF90CF90BF90AF909F908F907F906F9087
:1001C0005F904F900895B9010E947104CB01219670
:1001D00089CFF801D082DBCF9BB1937C9BB980FDA6
:1001E0005D9A81FD5C9A82FD5B9A83FD5A9A2B9AF7
:1001F0008FE891E00197F1F700C000002B988FE89D
:1002000091E00197F1F700C000000895CF93C82F47
:100210002C9A82958F700E94EC008C2F0E94EC002B
:100220008FE39FE10197F1F700C00000CF9108959F
:10023000CF93C82F2C9882958F700E94EC008C2F42
:100240000E94EC008FE39FE10197F1F700C00000EE
:10025000CF910895EF92FF920F931F93CF93DF9367
:100260008C01EC0109900020E9F72197C81BD90BFC
:100270007C01C701801B910B8C179D073CF0DF911F
:10028000CF911F910F91FF90EF900895F701819109
:100290007F010E940601EDCF80917C0080648093F5
:1002A0007C0080917A00876880937A0084B18861AD
:1002B00084B98AB18C638AB92FEF89EF90E021501D
:1002C00080409040E1F700C0000083E00E94EC0015
:1002D0008FE19EE40197F1F700C0000083E00E94E7
:1002E000EC008FE193E00197F1F700C0000083E09C
:1002F0000E94EC008FE193E00197F1F700C000004D
:1003000082E00E94EC0088E20E9418018CE00E94CA
:10031000180181E00E94180186E00E94180180E81F
:100320000E94180186E091E00E942A0180EC0E9460
:1003300018018BE091E00E942A019FEF23ED80E3FA
:10034000915020408040E1F700C0000080917A0089
:10035000806480937A0080917A0086FDFCCF809142
:10036000780060917900762F682F072E000C880B9B
:10037000990B0E94F80220E030E040EA50E40E942D
:10038000B70320E030EC4FE754E40E9484026B0195
:100390007C010E9453008C0123E333E343E050E4EB
:1003A000C701B6010E9417022BEA33E54AE85BE376
:1003B0000E94840220E030E048EC52E40E94B7033F
:1003C0000E94240420E030E048EC52E40E948402C1
:1003D0000E945300EC0186E80E94180180E191E040
:1003E0000E942A0186E80E941801C8010E942A0181
:1003F00085E191E00E942A01C8010E94760586EC01
:100400000E94180180E191E00E942A0186EC0E947E
:100410001801CE010E942A018FED0E94060187E19A
:1004200091E00E942A01CE010E94760586CF5058A5
:10043000BB27AA270E942F020C944A030E943C0368
:1004400038F00E94430320F039F49F3F19F426F45A
:100450000C9439030EF4E095E7FB0C943303E92F79
:100460000E945B0358F3BA17620773078407950766
:1004700020F079F4A6F50C947D030EF4E0950B2E94
:10048000BA2FA02D0B01B90190010C01CA01A001E6
:100490001124FF27591B99F0593F50F4503E68F141
:1004A0001A16F040A22F232F342F4427585FF3CF82
:1004B000469537952795A795F0405395C9F77EF453
:1004C0001F16BA0B620B730B840BBAF09150A1F09C
:1004D000FF0FBB1F661F771F881FC2F70EC0BA0F22
:1004E000621F731F841F48F4879577956795B795AA
:1004F000F7959E3F08F0B0CF9395880F08F09927A5
:10050000EE0F9795879508950E9498020C944A03E0
:100510000E94430358F00E943C0340F029F45F3FDF
:1005200029F00C94330351110C947E030C9439037D
:100530000E945B0368F39923B1F3552391F3951B54
:10054000550BBB27AA2762177307840738F09F5FF4
:100550005F4F220F331F441FAA1FA9F335D00E2E61
:100560003AF0E0E832D091505040E695001CCAF7CE
:100570002BD0FE2F29D0660F771F881FBB1F261791
:1005800037074807AB07B0E809F0BB0B802DBF0168
:10059000FF2793585F4F3AF09E3F510578F00C9437
:1005A00033030C947E035F3FE4F3983ED4F38695C7
:1005B00077956795B795F7959F5FC9F7880F911D58
:1005C0009695879597F90895E1E0660F771F881F44
:1005D000BB1F621773078407BA0720F0621B730BF7
:1005E000840BBA0BEE1F88F7E0950895E89409C0D4
:1005F00097FB3EF490958095709561957F4F8F4F56
:100600009F4F9923A9F0F92F96E9BB279395F6956B
:10061000879577956795B795F111F8CFFAF4BB0FE9
:1006200011F460FF1BC06F5F7F4F8F4F9F4F16C04D
:10063000882311F096E911C0772321F09EE8872FD7
:10064000762F05C0662371F096E8862F70E060E093
:100650002AF09A95660F771F881FDAF7880F96950C
:10066000879597F9089597F99F6780E870E060E0B3
:1006700008959FEF80EC089500240A94161617063B
:1006800018060906089500240A9412161306140683
:1006900005060895092E0394000C11F4882352F0E6
:1006A000BB0F40F4BF2B11F460FF04C06F5F7F4F9E
:1006B0008F4F9F4F089557FD9058440F551F59F085
:1006C0005F3F71F04795880F97FB991F61F09F3F3F
:1006D00079F087950895121613061406551FF2CF68
:1006E0004695F1DF08C0161617061806991FF1CFB8
:1006F00086957105610508940895E894BB276627DF
:100700007727CB0197F908950E94630358F19E570C
:1007100060F19851A0F0E9F0983020F5092E992762
:10072000660F771F881F991F0A94D1F712C0062EF3
:10073000672F782F8827985F11F4000C07C0993F26
:10074000B4F38695779567959395D9F7611D711DDB
:10075000811D3EF490958095709561957F4F8F4FE8
:100760009F4F089568940C947E030C947D030E941F
:10077000CA030C944A030E943C0338F00E944303CE
:1007800020F0952311F00C9433030C9439031124B9
:100790000C947E030E945B0370F3959FC1F3950F49
:1007A00050E0551F629FF001729FBB27F00DB11DF5
:1007B000639FAA27F00DB11DAA1F649F6627B00D85
:1007C000A11D661F829F2227B00DA11D621F739F6E
:1007D000B00DA11D621F839FA00D611D221F749F7C
:1007E0003327A00D611D231F849F600D211D822FC3
:1007F000762F6A2F11249F5750409AF0F1F08823EA
:100800004AF0EE0FFF1FBB1F661F771F881F915016
:100810005040A9F79E3F510580F00C9433030C948F
:100820007E035F3FE4F3983ED4F386957795679512
:10083000B795F795E7959F5FC1F7FE2B880F911D40
:100840009695879597F908950E946303E8F09E377F
:10085000E8F09639B8F49E3848F4672F782F882747
:10086000985FF9CF86957795679593959539D0F3ED
:10087000B62FB1706B0F711D811D20F48795779590
:10088000679593950C9448040C9463040C947E0330
:10089000882371F4772321F09850872B762F07C097
:1008A000662311F499270DC09051862B70E060E00B
:1008B0002AF09A95660F771F881FDAF7880F9695AA
:1008C000879597F908959F3F31F0915020F48795CF
:1008D00077956795B795880F911D9695879597F9A8
:1008E000089597FB072E16F4009407D077FD09D0E2
:1008F0000E94A40407FC05D03EF4909581959F4F7B
:100900000895709561957F4F0895052E97FB1EF40D
:1009100000940E949C0457FD07D00E94B80407FC75
:1009200003D04EF40C949C0450954095309521953D
:100930003F4F4F4F5F4F089590958095709561950B
:100940007F4F8F4F9F4F0895AA1BBB1B51E107C0DC
:10095000AA1FBB1FA617B70710F0A61BB70B881F4F
:10096000991F5A95A9F780959095BC01CD010895DE
:10097000A1E21A2EAA1BBB1BFD010DC0AA1FBB1FA3
:10098000EE1FFF1FA217B307E407F50720F0A21B15
:10099000B30BE40BF50B661F771F881F991F1A9482
:1009A00069F760957095809590959B01AC01BD01AC
:1009B000CF0108950F931F93CF93DF93823091055A
:1009C00010F482E090E0E0911C01F0911D0130E014
:1009D00020E0B0E0A0E0309799F42115310509F44A
:1009E0004AC0281B390B24303105D8F58A819B81F8
:1009F0006115710589F1FB0193838283FE0111C0AA
:100A0000408151810281138148175907E0F048174E
:100A1000590799F4109761F012960C931297139658
:100A20001C933296CF01DF91CF911F910F910895C2
:100A300000931C0110931D01F4CF2115310551F0D5
:100A40004217530738F0A901DB019A01BD01DF010C
:100A5000F801C1CFEF01F9CF90931D0180931C01E4
:100A6000CDCFFE01E20FF31F819391932250310904
:100A700039832883D7CF20911A0130911B01232B72
:100A800041F4209102013091030130931B01209326
:100A90001A0120910001309101012115310541F425
:100AA0002DB73EB74091040150910501241B350B31
:100AB000E0911A01F0911B01E217F307A0F42E1B3D
:100AC0003F0B2817390778F0AC014E5F5F4F2417B2
:100AD000350748F04E0F5F1F50931B0140931A01DA
:100AE000819391939FCFF0E0E0E09CCFCF93DF9391
:100AF0000097E9F0FC01329713821282A0911C0149
:100B0000B0911D01ED0130E020E01097A1F42081AB
:100B10003181820F931F20911A0130911B012817F8
:100B2000390709F061C0F0931B01E0931A01DF91CE
:100B3000CF910895EA01CE17DF07E8F54A815B817E
:100B40009E0141155105B1F7E901FB83EA83499103
:100B50005991C40FD51FEC17FD0761F48081918175
:100B60000296840F951FE90199838883828193817E
:100B70009B838A83F0E0E0E012968D919C9113971D
:100B80000097B9F52D913C911197CD010296820FF6
:100B9000931F20911A0130911B012817390739F64C
:100BA000309751F510921D0110921C01B0931B015A
:100BB000A0931A01BCCFD383C28340815181840F9B
:100BC000951FC817D90761F44E5F5F4F88819981DF
:100BD000480F591F518340838A819B81938382836D
:100BE0002115310509F0B0CFF0931D01E0931C01F0
:100BF0009ECFFD01DC01C0CF13821282D7CFF894C3
:020C0000FFCF24
:100C020000001E01800056203A200054203A2000A5
:0A0C120020202020005600430000BF
:00000001FF
