:100000000C9475000C947F000C947F000C947F007E
:100010000C947F000C947F000C947F000C947F0064
:100020000C947F000C947F000C947F000C947F0054
:100030000C947F000C947F000C947F000C947F0044
:100040000C947F000C947F000C947F000C947F0034
:100050000C947F000C947F000C947F000C947F0024
:100060000C947F000C947F0007634236B79BD8A79F
:100070001A39685618AEBAAB558C1D3CB7CC5763CD
:10008000BD6DEDFD753EF6177231BF000000803F7B
:1000900008000000BE922449123EABAAAA2ABECD97
:1000A000CCCC4C3E00000080BEABAAAAAA3E000009
:1000B0000000BF000000803F000000000008417801
:1000C000D3BB4387D1133D190E3CC3BD4282AD2B38
:1000D0003E68EC8276BED98FE1A93E4C80EFFFBE30
:1000E00001C4FF7F3F000000000011241FBECFEFBE
:1000F000D8E0DEBFCDBF0E9488000C9400050C94B0
:1001000000009091C00095FFFCCF8093C600089539
:10011000CF93DF93CDB7DEB72A970FB6F894DEBF43
:100120000FBECDBF80E480937C0087E880937A0087
:1001300087E68093C4001092C50088E08093C100D8
:1001400086E08093C200CE0101967C018AE0A82E51
:10015000B12C80917A00806480937A0080917A003B
:1001600086FDFCCF8091780060917900762F682F12
:10017000072E000C880B990B0E945A0220E030E0F9
:1001800040EA50E40E94E60220E030EC4FE754E4FD
:100190000E94B0012B013C010E9422024B01072E5C
:1001A000000C880B990B0E945A029B01AC01C30101
:1001B000B2010E94430120E030E44CE156E40E9489
:1001C000E6020E9422026B0177FF04C0CC24DD24EA
:1001D000C61AD70AF7018114910409F03FC080E3E1
:1001E0000E9481008EE20E94810003E010E0B801CD
:1001F000012E000C880B990B0E945A029B01AC0146
:1002000060E070E080E291E40E9453030E942202C9
:10021000AB01C601BA010E94D804CB01B5010E940E
:10022000D804805D0E9481000150110900F78DE023
:100230000E9481008AE00E9481008FEF93EDE0E34D
:1002400081509040E040E1F700C0000082CFC4013F
:10025000B5010E94D804805D81934B018F010E1976
:100260001F09181419049CF30E0D1F1D01501109CC
:10027000C8018E199F09019609F4B4CFF801808155
:100280000E948100F3CF5058BB27AA270E945B0130
:100290000C94AC020E949E0238F00E94A50220F04D
:1002A00039F49F3F19F426F40C949B020EF4E09568
:1002B000E7FB0C949502E92F0E94BD0258F3BA1790
:1002C000620773078407950720F079F4A6F50C946C
:1002D000DF020EF4E0950B2EBA2FA02D0B01B90111
:1002E00090010C01CA01A0011124FF27591B99F0AC
:1002F000593F50F4503E68F11A16F040A22F232FB8
:10030000342F4427585FF3CF469537952795A79507
:10031000F0405395C9F77EF41F16BA0B620B730BAE
:10032000840BBAF09150A1F0FF0FBB1F661F771F1F
:10033000881FC2F70EC0BA0F621F731F841F48F4D4
:10034000879577956795B795F7959E3F08F0B0CF5D
:100350009395880F08F09927EE0F97958795089544
:100360000E94C4010C94AC020E94A50258F00E94A5
:100370009E0240F029F45F3F29F00C949502511140
:100380000C94E0020C949B020E94BD0268F3992336
:10039000B1F3552391F3951B550BBB27AA27621781
:1003A0007307840738F09F5F5F4F220F331F441F8E
:1003B000AA1FA9F335D00E2E3AF0E0E832D09150C2
:1003C0005040E695001CCAF72BD0FE2F29D0660FAF
:1003D000771F881FBB1F261737074807AB07B0E8F2
:1003E00009F0BB0B802DBF01FF2793585F4F3AF0F8
:1003F0009E3F510578F00C9495020C94E0025F3F0B
:10040000E4F3983ED4F3869577956795B795F7957D
:100410009F5FC9F7880F911D9695879597F9089565
:10042000E1E0660F771F881FBB1F62177307840701
:10043000BA0720F0621B730B840BBA0BEE1F88F710
:10044000E09508950E9429026894B1110C94E0028D
:1004500008950E94C50288F09F5798F0B92F9927F8
:10046000B751B0F0E1F0660F771F881F991F1AF09F
:10047000BA95C9F714C0B13091F00E94DF02B1E023
:1004800008950C94DF02672F782F8827B85F39F022
:10049000B93FCCF3869577956795B395D9F73EF438
:1004A00090958095709561957F4F8F4F9F4F0895E0
:1004B000E89409C097FB3EF49095809570956195FE
:1004C0007F4F8F4F9F4F9923A9F0F92F96E9BB27B4
:1004D0009395F695879577956795B795F111F8CF30
:1004E000FAF4BB0F11F460FF1BC06F5F7F4F8F4F9B
:1004F0009F4F16C0882311F096E911C0772321F091
:100500009EE8872F762F05C0662371F096E8862F28
:1005100070E060E02AF09A95660F771F881FDAF77F
:10052000880F9695879597F9089597F99F6780E8C2
:1005300070E060E008959FEF80EC089500240A9435
:100540001616170618060906089500240A941216AE
:100550001306140605060895092E0394000C11F4E1
:10056000882352F0BB0F40F4BF2B11F460FF04C08E
:100570006F5F7F4F8F4F9F4F089557FD9058440FE7
:10058000551F59F05F3F71F04795880F97FB991FF2
:1005900061F09F3F79F087950895121613061406AF
:1005A000551FF2CF4695F1DF08C01616170618063C
:1005B000991FF1CF86957105610508940895E89417
:1005C000BB2766277727CB0197F908950E94F90288
:1005D0000C94AC020E949E0238F00E94A50220F00A
:1005E000952311F00C9495020C949B0211240C9409
:1005F000E0020E94BD0270F3959FC1F3950F50E099
:10060000551F629FF001729FBB27F00DB11D639FC4
:10061000AA27F00DB11DAA1F649F6627B00DA11D6A
:10062000661F829F2227B00DA11D621F739FB00D10
:10063000A11D621F839FA00D611D221F749F332780
:10064000A00D611D231F849F600D211D822F762F19
:100650006A2F11249F5750409AF0F1F088234AF0F6
:10066000EE0FFF1FBB1F661F771F881F9150504062
:10067000A9F79E3F510580F00C9495020C94E0027E
:100680005F3FE4F3983ED4F3869577956795B795E9
:10069000F795E7959F5FC1F7FE2B880F911D969503
:1006A000879597F90895FA01EE0FFF1F30962105FF
:1006B0003105A1F16115710561F48038BFE39B0735
:1006C00049F168949038810561F08038BFEF9B074D
:1006D00041F099234AF5FF3FE1053105210519F164
:1006E000E8940894E795D901AA2329F4AB2FBE2FEB
:1006F000F85FD0F310C0FF5F70F4A695E0F7F7390C
:1007000050F019F0FF3A38F49F779F930DD00F9077
:1007100007FC9058089546F00C949B0260E070E04E
:1007200080E89FE308954FE79F775F934F933F9350
:100730002F930E944E042F913F914F915F910E9401
:10074000E6020C94AB0329F416F00C9495020C9479
:10075000DF020C949B020E94C502A8F39638A0F712
:1007600007F80F92E8942BE33AEA48EB5FE70E9420
:10077000FC020F920F920F924DB75EB70F920E943C
:100780009604E8E6F0E00E94DD034F915F91EF915F
:10079000FF91E595EE1FFF1F49F0FE57E0684427E3
:1007A000EE0F441FFA95E1F74195550B0E94100496
:1007B0000F9007FE0C9404040895DF93CF931F93CA
:1007C0000F93FF92EF92DF927B018C01689406C039
:1007D000DA2EEF010E94F902FE01E894A59125911D
:1007E000359145915591A6F3EF010E945B01FE0101
:1007F0009701A801DA9469F7DF90EF90FF900F91CD
:100800001F91CF91DF9108959B01AC0160E070E0F2
:1008100080E89FE30C94B0010C9495020C94CA04F8
:100820000E94C502D8F39923C9F3940F511DA3F375
:100830009150504094F059F0882332F0660F771FA2
:10084000881F91505040C1F79E3F51052CF7880FEB
:10085000911D9695879597F908955F3FACF0983E66
:100860009CF0BB27869577956795B79508F4B1609E
:100870009395C1F7BB0F58F711F460FFE8CF6F5F96
:100880007F4F8F4F9F4FE3CF0C94E00216F00C94F4
:10089000CA040C949B0268940C9495020E94C502B1
:1008A000A8F39923C1F3AEF3DF93CF931F930F9374
:1008B000FF92C92FDD2788232AF02197660F771F23
:1008C000881FDAF720E030E040E85FEB9FE38839EB
:1008D00020F0803E38F021968F770E944401E0E9B5
:1008E000F0E004C00E944401EDEBF0E00E94DD0363
:1008F0008B01BE01EC01FB2E6F5771097595771FB7
:10090000880B990B0E945A0228E132E741E35FE32A
:100910000E94F902AF2D9801AE01FF900F911F9137
:10092000CF91DF910E945B010C94AC02FA01DC01D3
:10093000AA0FBB1F9B01AC01BF5728F42227332706
:100940004427507820C0B75190F4AB2F002446952F
:1009500037952795011CA395D2F3002071F0220F43
:10096000331F441FB395DAF30ED00C94430161306A
:100970007105A0E88A07B94630F49B01AC016627EF
:10098000772788279078309621F02083318342831F
:10099000538308959F3F31F0915020F487957795C8
:1009A0006795B795880F911D9695879597F9089546
:1009B00097FB072E16F4009407D077FD09D00E940C
:1009C000EC0407FC05D03EF4909581959F4F089567
:1009D000709561957F4F0895AA1BBB1B51E107C01D
:1009E000AA1FBB1FA617B70710F0A61BB70B881FBF
:1009F000991F5A95A9F780959095BC01CD0108954E
:040A0000F894FFCF98
:00000001FF
